:020000042001D9
:100000009711FF5F938101809702000093820202A3
:1000100073905230138111C0137101FF732540F1A9
:0A00200001E16D28312001A001A0CC
:04002C00C6000120E9
:100030003707012041119307300513074711B736E1
:100040000110A94535468842E34F05FE9CC20507CD
:100050008347070091CBE398B7FE9C42E3CF07FEAE
:1000600090C283470700C5B7A3060100B737011048
:1000700029453548D843E34F07FE9376F70F23060B
:10008000D1001376F70F780089CE6388A6028345E6
:1000900007009443E3CF06FE8CC3050783460700A1
:1000A000EDF6E31906FD9843E34F07FE23A0070191
:1000B0009843E34F07FE88C375BF9443E3CF06FE22
:1000C00023A00701E9B7B737011098471367170056
:1000D00098C7D84713671700D8C782804111B70760
:1000E000012026C2B704012022C403A4C70283A7AB
:1000F000C40206C6637AF40011048327C4FF829702
:1001000083A7C402E36AF4FEB24022449244410150
:020110008280EB
:1001140053696D706C65204563686F0A0A000000BE
:100124001000000000000000017A5200017C01016F
:100134001B0D02001000000018000000F0FEFFFF7D
:100144009600000000460E10100000002C00000075
:1001540072FFFFFF160000000000000024000000F2
:100164004000000074FFFFFF3600000000420E1044
:100174004689034688024A810156C142C842C9429F
:040184000E00000069
:0400000520010000D6
:00000001FF
