:020000042001D9
:100000009711FF5F938101809702000093820202A3
:1000100073905230138111C0137101FF732540F1A9
:0A00200001E15120312001A001A0F0
:04002C00900001201F
:100030004111A3060100B737011029453548D843BF
:10004000E34F07FE9376F70F2306D1001376F70FE1
:1000500091CE78006388A602834507009443E3CFDE
:1000600006FE8CC3050783460700EDF6E31906FD7F
:100070009843E34F07FE23A007019843E34F07FE91
:1000800088C375BF9443E3CF06FE23A00701E9B7F9
:10009000B737011098471367170098C7D8471367F9
:1000A0001700D8C782804111B707012026C2B704C4
:1000B000012022C403A4C70283A7C40206C6637A30
:1000C000F40011048327C4FF829783A7C402E36A64
:0C00D000F4FEB2402244924441018280C0
:1000DC001000000000000000017A5200017C0101B8
:1000EC001B0D0200100000001800000038FFFFFF7D
:1000FC006000000000420E10100000002C000000F8
:10010C0084FFFFFF16000000000000002400000028
:10011C004000000086FFFFFF3600000000420E107A
:10012C004689034688024A810156C142C842C942E7
:04013C000E000000B1
:0400000520010000D6
:00000001FF
